:02000002D0002C
:1040000000400D00A4740D00000006000C00050126
:084010000401BD0B00000000DB
:044018000C670D0024
:10401C0009480A49884208B505D0094A824202D0AB
:10402C00121A02F02BFB0748074A0021121A02F061
:10403C0033FB014808BD00BF54E5032014740D0088
:10404C00BCE50320BCE50320F0E7032070B5074E68
:10405C00074C01F01DFFA41BA4080025A54200D1AC
:10406C0070BD56F8043B98470135F7E7EC730D002B
:10407C0010740D0000F02CB808B500F059F8BDE82C
:10408C00084001F0C7BE01F08FBC01F095BC0000E8
:10409C0008B5034A00210C2001F0EAFBFEE700BF43
:1040AC00ED550D000078B0FA80F0400970470123FF
:1040BC0003707047014B01221A70704740E60320D1
:1040CC0010B50446006808B101F076FC204610BD1E
:1040DC0013B50221062002F03BFA00240021072030
:1040EC0002F036FA02224FF0FF330F4900940620FB
:1040FC0002F000F80D4800F009FD0C4800F012FF2A
:10410C0001210A4800F0B3FC08484FF00113046188
:10411C00436101F073F901F0C1FF4FF4165102B085
:10412C00BDE8104001F0AEBFC1400D00D0E503204A
:10413C00F8B5254C254E204600F011FD204600F028
:10414C00F1FE0121204600F092FC00274FF00113F4
:10415C00C4E90473072002F025FA0546062002F094
:10416C0021FA337883B11A4B1988013189B20A22AA
:10417C002046198001F0ADFD204601F03FF94FF4C7
:10418C007A70377001F00CFEE5B9124C23786BB1E4
:10419C0001F0DCFF257001F081FF0F4901F08FFD6C
:1041AC00BDE8F8404FF47A7001F0FABD01F0CCFF95
:1041BC000123237001F072FF01F075FD01F06EFF19
:1041CC000649EBE7F8BD00BFD0E5032040E603202D
:1041DC00CCE5032041E6032020670D002C670D0081
:1041EC0038B50F4C0F4BA36000252560A580A57139
:1041FC00032001F045FB0C4A0C4920460C4C02F004
:10420C0025FA2946012001F04BFB0721204600F03E
:10421C004FFC2046044A0749BDE8384002F016BA64
:10422C00C0E503200000FFFFBCE50320CD400D00DE
:10423C00D0E50320894A0D00704710B510210446C3
:10424C0002F009FA204610BD0EB403B503AB0021F1
:10425C0053F8042B019301F05AFD02B05DF804EB06
:10426C0003B0704773B5044608462279A36832B18F
:10427C00A3B90B4902B0BDE8704001F00DBD094A6D
:10428C00267B094D0949647B012E18BF2946CDE9CF
:10429C0000140749FFF7D8FF02B070BD054AEFE7DD
:1042AC004A670D0041670D0046670D0042670D001F
:1042BC0060670D0039670D002DE9F04F85B01F4682
:1042CC00BDF93880BDF83C30A8EB0209A7EB010A18
:1042DC00B9F1000FB8BFC9F10009BAF1000FB8BFAE
:1042EC00CAF1000AD14583460C46154604DD3A4610
:1042FC002C4647460D469046BC4205DD2A464546AF
:10430C00904622463C4617463E1BB2B20092A8EBA2
:10431C000502002AB8BF52420192C6F3C03202FA1B
:10432C0086F64545B4BF01224FF0FF32761002925B
:10433C00BC421CDCDBF800200393D145D2F818807A
:10434C00C7BF294622462A4621465846C047019AED
:10435C00039BB61AB1B236B2002E05DA029A154496
:10436C00009A56182DB236B2013424B2E0E705B0EB
:10437C00BDE8F08F704710B404682469A4465DF85A
:10438C00044B604730B40468BDF808500295A46B28
:10439C00A44630BC604730B40468BDF808500295A0
:1043AC00E46BA44630BC604770B4BDF90C50BDF84A
:1043BC0010600468CDE90356246CA44670BC6047B9
:1043CC002DE9F3411C460368BDF820805B69054666
:1043DC001646013C34440F4624B298472B68CDF85E
:1043EC00048000949C6A28463B4632463946A047D6
:1043FC002B68DB6A284602B0BDE8F04118472DE96E
:10440C00F3411D460368BDF820805B6904461746DE
:10441C000E469847CDE9007822686B1E3344956AA6
:10442C0020461BB23A463146A8472368DB6A204631
:10443C0002B0BDE8F04118472DE9F3471E4603686A
:10444C00BDF928905B69BDF82C800C4605461746D3
:10445C0098472644B4422B680BDACDF80080D3F889
:10446C0020A021464B463A4628460134D04724B278
:10447C00F0E7DB6A284602B0BDE8F047184713B5F1
:10448C0002680191B0F90E100091146CB0F90C3067
:10449C0000221146A04702B010BD2DE9F3471D467E
:1044AC000368BDF82C805B69BDF9289004460F4663
:1044BC00164698472368CDF80080D3F824A03246DE
:1044CC002B4639462046D0472368CDF8008009F1A9
:1044DC00FF323244D3F824A039462B46204612B280
:1044EC00D0472368CDF80080D3F820A032464B4645
:1044FC0039462046D0476B1ED9192368CDF8008069
:10450C001D6A20464B46324609B2A8472368DB6A2F
:10451C00204602B0BDE8F047184770472DE9F74335
:10452C0099421646BDF92870BDF82C900268804659
:10453C000D461C4613D1BE42C8BF3346CDF8289059
:10454C00C4BF3E461F467B1C946B9B1B1BB2324662
:10455C0029464046A44603B0BDE8F0436047BE423E
:10456C000AD19942C2BF0B4625461C46631CCDF8A6
:10457C002890D46B5B1BE9E753699847CDE9007928
:10458C00D8F8003040469F6A324623462946B84741
:10459C00D8F80030DB6A404603B0BDE8F04318475A
:1045AC0001F00303B0F90A208376C907B0F908308B
:1045BC0059BF8381C2818281C381704730B54281EA
:1045CC00C281074A074D0181002481814FF0FF31E0
:1045DC00C0E905124460056004610477046230BDD3
:1045EC0001010001886C0D002DE9F04F89B0CDE977
:1045FC0002120268BDF948800493BDF94C3052692F
:10460C000593BDF850A00446904718F107024FF0EF
:10461C00000648BF08F10E024FEAE20B0196354640
:10462C00039B019ABDF904109A18059B8B4212B298
:10463C0027DD049B33444FF0000906930FFA89F0F1
:10464C0080451FFA89F117DD4F0705BF069BC01087
:10465C006D001D5C18BFEDB22B060AD5029B2068BD
:10466C0007921944836909B21F4620465346B8473E
:10467C00079A09F10109E1E7019B013301935E44BB
:10468C00CEE72368DB6A204609B0BDE8F04F184737
:10469C002DE9F04F2DED028B91B01646026ABDF854
:1046AC0074809DF878509DF87C4003911F46BDF8AE
:1046BC00703004938346002A40F0C580B0F90C306A
:1046CC008B4240F34C81B0F90E30B34240F347813A
:1046DC00062313FB0513002B40F3418106EBC403A7
:1046EC00002B40F33C81037F1BB9AF2F84BF0137F4
:1046FC00FFB2DBF8003058465B69984705220992F7
:10470C0000220592984A07EB8703D3180C93B3B297
:10471C000693059A0C9B9B5C0793ABB20B93BDF86D
:10472C000C300893039B02FB05F919FA83F90FFA75
:10473C0089F308EE103A08230A93039B02EB030A51
:10474C004FF000090FFA8AFA079ADBF80030D2070B
:10475C0052D5012D1FFA89F23ED1012C3CD19B6917
:10476C0006991F46049B0A4412B251465846B84754
:10477C0009F101034FFA83F9079B5B0807930A9B26
:10478C00013B13F0FF030A93DED1059F01377BB287
:10479C000593099B013B13F0FF030993B9D1049BCB
:1047AC0043450FD0012DDBF800303BD1012C39D122
:1047BC000899CDF8008005311C6A3246082309B2ED
:1047CC005846A047DBF80030DB6A584611B0BDEC08
:1047DC00028BBDE8F04F1847069914FB02F20A440D
:1047EC00049901910094DB6918EE101A1F4612B25D
:1047FC002B465846B847BBE7049A4245B8D0012D22
:10480C001FFA89F207D1012C05D19B6906991F4625
:10481C000A444346A8E70699CDF8048014FB02F23B
:10482C000A44DFE70B9ACDF8048002EB8201089A68
:10483C00E4000A4411460094DC6932462B4609B266
:10484C005846A047BEE7137A516812680D92FF1ABA
:10485C00FFB201EBC70331F8372006929A78099220
:10486C00DA780B92012D93F9052093F906A00A92A0
:10487C0001D8012C57D9BDF9283008930FFA8AF3C7
:10488C000793DBF8003058465B699847B3B24FF09A
:10489C0000080E931AFA86F3C14647460F930B9BFA
:1048AC009F428FD2079B0E9A3B4403FB04230022AA
:1048BC0005920F9A1BB202EB070A08EE103A0FFA98
:1048CC008AFA4346099A0599914241D25A1CD2B2AE
:1048DC005B070C9207D1069B06990D9A01339BB28C
:1048EC0012F80190069319F0800F12D0012DDBF80D
:1048FC000030BDF80C101AD1012C18D10A9A9B6902
:10490C001144059A11441E465246049B09B258465E
:10491C00B047059E0136F3B24FEA490905935FFA99
:10492C0089F90C9BCEE70023CDE90733A9E705985D
:10493C00089A024402FB0511049ACDE90042DB6996
:10494C0018EE102A1E4609B22B465846B047E0E72F
:10495C00099B013798445FFA88F8FFB29FE711B0C2
:10496C00BDEC028BBDE8F08F7D670D00F0B5026ADF
:10497C0085B004460B46002A34D10A2908D1438A53
:10498C000282427E03EBC2036382012005B0F0BDBC
:10499C000D29FAD0E17E007E657E71B1B4F910600C
:1049AC00062111FB0061B4F90C60B142C1BFB4F92E
:1049BC001210228201EBC5026282E28A0192A28A63
:1049CC000092CDE90205B4F91220B4F9101020467A
:1049DC00FFF75EFE237E228A03EB430302EB4303C5
:1049EC002382D2E70A2907D100230382937A417EDE
:1049FC00428A01FB0323C7E70D29C6D0157AA942C9
:104A0C00C3D3517A9942C0D351685D1BEDB201EB0F
:104A1C00C505AF782FB3E97819B3E17E007E667EC9
:104A2C0091B195F905103944B4F9107000FB01717E
:104A3C00B4F90C70B94207DD00272782B4F91210C3
:104A4C00927A02FB06126282E28A0192A28A009298
:104A5C00CDE90206B4F91220B4F910102046FFF784
:104A6C0017FE2979237E228A01FB0323B8E701294B
:104A7C0038BF0121017641767047000010B5064B16
:104A8C0003600446006D08B100F0C2FD204600F042
:104A9C00D1F8204610BD00BFE06C0D0010B50446E7
:104AAC00FFF7ECFF2046702101F0D5FD204610BD2C
:104ABC0030B585B004460D4601F0A0FD104A1149F1
:104ACC00CDE901214FF0FF328021034600922046B0
:104ADC00202200F035F90C4B23600023C4E9143577
:104AEC0004F1580000F054F804F1600000F050F8A4
:104AFC0004F1680000F04CF8204605B030BD00BF52
:104B0C00801A0600A0860100E06C0D0013B5044667
:104B1C00503000F075FD636DD90705D502220421D4
:104B2C0004F1580000F048F8636D9A0705D500228F
:104B3C00032104F1600000F03FF8636D5B0705D5BD
:104B4C000222114604F1680000F036F801230093AC
:104B5C003C220221204600F0F3F902B010BD10B542
:104B6C00436DD907044602D5583000F032F8636D16
:104B7C009A0703D504F1600000F02BF8636D5B0716
:104B8C0005D504F16800BDE8104000F022B810BD56
:104B9C0000210A22C0E900127047002310B5044618
:104BAC00C171837188B201F0FDFC08B10323A371BC
:104BBC0000F01EFD206010BD38B50C4605461146B0
:104BCC00A0B201F0C5FC21462846BDE83840FFF7ED
:104BDC00E4BF38B50446C07901F0E4FCA57900388F
:104BEC0025F0080318BF0120C5F340058542A371C9
:104BFC000AD000F0FDFCA379206083F00203A371BE
:104C0C00A079C0F3C00038BD00F0F2FC2368C01AD4
:104C1C00A3889842F4D3A37903F00103AB42EFD0FD
:104C2C0000F0E6FCA379206083F0010343F0080355
:104C3C00E5E7000010B5044B03600446C06A08B1F8
:104C4C0000F0BAFE204610BDEC710D0010B5044604
:104C5C00FFF7F0FF2046502101F0FDFC204610BD6F
:104C6C00002910B54BDBB0F90C408C4247DD002A13
:104C7C0045DBB0F90E40944241DD847E022C1FD0FE
:104C8C00032C26D0012C04D10489D24314440A46A7
:104C9C0021B2012B23D0022B32D083BB002A134626
:104CAC000489C06AB8BFD31DDB1013FB041102F0DA
:104CBC00070201239340425C22EA030242541EE0A5
:104CCC000489C94321444489D243224409B212B213
:104CDC00DFE74489C9430C44114622B2D9E7002AC4
:104CEC0004891346B8BFD31DDB1013FB0411C36A30
:104CFC0002F0070001228240585C02435A5410BD56
:104D0C00002A13460489C06AB8BFD31DDB1013FBFD
:104D1C00041102F00702012303FA02F2435C5A4029
:104D2C00CCE710B5044690F93600012180B201F0B1
:104D3C0020FC606A18B1BDE8104000F0B4BE10BD94
:104D4C0070B504461D460026FFF738FC114B236056
:104D5C00666215B901F052FC0546FF2384F8333026
:104D6C0084F836309DF9103084F837300A4BA36341
:104D7C00012384F83C30059BA3644FF6FF72069B1D
:104D8C00A286C4E90A562664A4F84460E36420466B
:104D9C0070BD00BFEC710D00386D0D00F8B5044608
:104DAC00806A0D4690B194F9301001F09BFAA06A1C
:104DBC00036800219B689847A06A036829469B6892
:104DCC009847A06ABDE8F84001F093BA94F93530E1
:104DDC00014698B201F0CDFB606A20B12946BDE8CE
:104DEC00F84000F0E7BE0826802794F9330005EA66
:104DFC00070180B201F0BDFB94F93400012180B2AF
:104E0C0001F0B7FB94F93400002180B201F0B1FB42
:104E1C00013E4FEA5707E8D1F8BD38B50446806A21
:104E2C000D4680B1A16C01F04FFA002D204614BF45
:104E3C00A721A621FFF7B2FFA06A88B1E16CBDE8FB
:104E4C00384001F041BA606A18B104F1380100F041
:104E5C0043FE94F93600002180B201F08AFBE4E7AE
:104E6C002046BDE83840FFF75CBF2DE9F843044607
:104E7C00806A0D468F1840B394F9301001F032FA65
:104E8C00A06A036800219B6898470126BD42A06A6E
:104E9C0017D01F2E0CD901F02CFA94F93010A06AFF
:104EAC0001F020FAA06A036800219B68984701264C
:104EBC00A06A15F8011B036801369B689847F6B287
:104ECC00E4E7BDE8F84301F014BA94F93530014633
:104EDC0098B201F04EFBAF4222D0606A15F8019BEC
:104EEC0018B1494600F066FEF5E708264FF0800839
:104EFC0094F9330009EA080180B201F03AFB94F905
:104F0C003400012180B201F034FB94F9340000210B
:104F1C0080B201F02EFB013E4FEA5808E8D1DAE7E7
:104F2C00BDE8F883B0F90A30DA1D48BF03F10E0270
:104F3C00B0F90830C06AD2105A43002101F0ACBB62
:104F4C002DE9FF411E46C36A9DF8288004460F4692
:104F5C001546B3B12046FFF7E5FFB4F90A00B4F9E2
:104F6C00081020281FDC20230122CDE90132203833
:104F7C0073237339009300EBD070894B01EBD17123
:104F8C001FE0B0F90A30D81D48BF03F10E00B4F988
:104F9C000830C010584300F007FDE0620028D9D15A
:104FAC0004B0BDE8F08140234FF0010CCDE9013C89
:104FBC0052234038523900937A4B00EBD07001EBFE
:104FCC00D17140F34F0241F34F012046FFF70CFB28
:104FDC00A06A84F83170002878D0002D74D1B4F90F
:104FEC000A30202B0CBF3C253D2584F83050B8F1FD
:104FFC00000F01D001F06CF9FEB194F937000028D4
:10500C001BDB012180B201F0A3FA94F937000121D6
:10501C0080B201F0AEFA012000F0C2FE94F9370024
:10502C00002180B201F0A5FA0A2000F0B9FE94F933
:10503C003700012180B201F09CFAA06A002874D0DC
:10504C00A16C01F041F9042257492046FFF70DFFEE
:10505C00A17A0139C9B22046FFF7A0FE53490422B8
:10506C002046FFF702FF94F93130012B0CBF1021C1
:10507C0014212046FFF792FE04224D492046FFF7EB
:10508C00F4FEA3684B4A93425CD14B490422204660
:10509C00FFF7EBFED9212046FFF780FE94F9313063
:1050AC00012B0CBF2221F1212046FFF777FE204671
:1050BC0042490622FFF7D9FEA06A002863D0E16CB2
:1050CC0001F002F901206BE76DB28EE794F935001F
:1050DC00012180B201F03CFA94F93600012180B232
:1050EC0001F036FA94F93600012180B201F041FA50
:1050FC00656A3DB1B8F1000F3FF47EAF284600F071
:10510C00C1FC79E794F93300012180B201F020FA57
:10511C0094F93400012180B201F01AFA94F93400A8
:10512C00294680B201F025FA66E7606A18B104F1ED
:10513C00380100F0D1FC94F93600002180B201F066
:10514C0018FA80E71E4A93420ED11E4903222046CC
:10515C00FFF78BFE94F93130012B0CBF9F21CF212F
:10516C002046FFF71BFE95E7174A934292D1174949
:10517C0003222046FFF779FE94F93130012B0CBF46
:10518C001021AF21ECE794F93600012180B201F037
:10519C00F0F9606A002895D000F085FC92E700BF1A
:1051AC0004700D00446D0D004C720D0050720D001A
:1051BC0054720D00800020005E720D0058720D00BC
:1051CC008000400062720D006000100065720D00DE
:1051DC0070B5002ABDF810503DDBB0F90A4094427E
:1051EC0039DD0029BEBF5B181BB20021B0F90840A5
:1051FC00CE18A642C4BF631A1BB2002B2BDDC06AAB
:10520C00D61014FB0611014402F007000122824063
:10521C00012DD2B216D0022D0BD0E5B9D243D2B2A9
:10522C000B44994217D011F8010B104001F8010CF6
:10523C00F7E70B4499420ED011F8010B504001F8DE
:10524C00010CF7E70B44994205D011F8010B104300
:10525C0001F8010CF7E770BDF0B50029BDF814603A
:10526C0076DBB0F90850A94272DA002ABCBFD2181A
:10527C0013B2B0F90A40B8BF0022D718A742C4BF76
:10528C00A31A1BB2002B63DDC2F3C404C76A15FB5F
:10529C00041112F00702DBB207EB010423D0C2F1B8
:1052AC000802D2B22C4D93423CBF4FF0FF0CA2EB44
:1052BC00030EAD5C3CBF4CFA0EFC0CEA0505012E4E
:1052CC0007D0022E2ED04EB917F801C02CEA0505D6
:1052DC0003E017F801C045EA0C057D54934237D31F
:1052EC00B0F908100C449A1AD2B2072A0ED9022E21
:1052FC001DD113462178C9432170083BB0F9081021
:10530C00DBB2072B0C44F5D802F0070202B3134BA7
:10531C00012E9B5C19D0022E1BD0CEB9227822EA2A
:10532C00030314E017F801C085EA0C05D5E7002E3D
:10533C0014BFFF25002513462570083BB0F9081053
:10534C00DBB2072B0C44F7D8DEE72278134323702B
:10535C00F0BD22785340FAE73C720D0044720D0008
:10536C0070B41446827EBDF80C60022A0DD0032A5C
:10537C0018D0012A11D10289E443144424B20396B3
:10538C000A46214670BCFFF767BF42890589E44392
:10539C0019441444691A24B209B20396224670BC0B
:1053AC00FFF716BF45891944691A09B2E7E730B40B
:1053BC001446827EBDF80850022A0DD0032A18D05C
:1053CC00012A11D1E2180489A41A24B202950A46C2
:1053DC00214630BCFFF7FCBE0289C9431144E218D8
:1053EC004489A41A09B224B20295224630BCFFF7B4
:1053FC0033BF4289C943114409B2E7E72DE9F843A9
:10540C000446806A002842D0A16C00F05DFF474939
:10541C0005222046FFF729FD217A01392046C9B221
:10542C00FFF7BCFCB4F90A30DE1D48BF03F10E06D1
:10543C00D4E90A052389F61013FB06F615FA86F64D
:10544C0000283AD094F9301000F04CFFA06A0368A1
:10545C0040219B6898470127B542A06A24D01F2F92
:10546C000CD900F046FF94F93010A06A00F03AFF16
:10547C00A06A036840219B6898470127A06A15F829
:10548C00011B036801379B689847FFB2E4E7606A29
:10549C0018B104F1380100F01FFB94F9360000211B
:1054AC0080B201F066F8B2E700F023FFA06A78B38F
:1054BC00E16CBDE8F84300F007BF94F93500012119
:1054CC0080B201F056F8B542F0D0606A15F8019B35
:1054DC0018B1494600F06EFBF5E708274FF080083D
:1054EC0094F9330009EA080180B201F042F894F90A
:1054FC003400012180B201F03CF894F93400002111
:10550C0080B201F036F8013F4FEA5808E8D1DAE7EB
:10551C0094F93600012180B201F02BF8606A18B1C1
:10552C00BDE8F84300F0BFBABDE8F88368720D001F
:10553C0008B5024B1B689B68019308BD6802030009
:10554C0008B5024B1B68DB68019308BD68020300B9
:10555C0008B5024B1B689B68019308BD2C02030025
:10556C0008B5024B1B68DB68019308BD2C020300D5
:10557C0008B5024B1B681B69019308BD2C02030084
:10558C0008B5024B1B685B69019308BD2C02030034
:10559C0008B5024B1B689B69019308BD2C020300E4
:1055AC0008B5024B1B68DB69019308BD2C02030094
:1055BC0008B5024B1B681B6A019308BD2C02030043
:1055CC0008B5024B1B685B6A019308BD2C020300F3
:1055DC0008B5024B1B685B68019308BD18020300F9
:1055EC0008B5024B1B68DB68019308BD1802030069
:1055FC0008B5024B1B685B69019308BD18020300D8
:10560C0008B5024B1B681B6B019308BD48020300D5
:10561C0008B5024B1B685B6B019308BD4802030085
:10562C0008B5024B1B685B6C019308BD4802030074
:10563C0008B5024B1B689B6C019308BD4802030024
:10564C0008B5024B1B685B69019308BD640203003B
:10565C0008B5024B1B681B68019308BD3C02030094
:10566C0008B5024B1B68DB68019308BD3C020300C4
:10567C0008B5024B1B681B69019308BD3C02030073
:10568C0008B5024B1B685B69019308BD3C02030023
:10569C0008B5024B1B689B69019308BD3C020300D3
:1056AC0008B5024B1B68DB69019308BD3C02030083
:1056BC0008B5024B1B681B6A019308BD3C02030032
:1056CC0008B5024B1B689B6A019308BD3C020300A2
:1056DC0008B5024B1B681B68019308BD2802030028
:1056EC0008B5024B1B68DB68019308BD2802030058
:1056FC0008B5024B1B689B69019308BD2802030087
:10570C0008B5024B1B68DB69019308BD2802030036
:10571C0008B5024B1B681B6A019308BD28020300E5
:10572C0008B5024B1B685B6A019308BD2802030095
:10573C0008B5024B1B689B6A019308BD2802030045
:10574C0008B5024B1B68DB6A019308BD28020300F5
:10575C0008B5024B1B681B6B019308BD28020300A4
:10576C0008B5024B1B685B6B019308BD2802030054
:10577C0008B5024B1B681B6C019308BD2802030083
:10578C0008B5024B1B681B68019308BD300203006F
:10579C0008B5024B1B685B69019308BD300203001E
:1057AC0008B5024B1B68DB69019308BD300203008E
:1057BC0008B5024B1B681B6A019308BD300203003D
:1057CC0008B5024B1B685B6A019308BD30020300ED
:1057DC0008B5024B1B68DB6B019308BD300203005C
:1057EC0008B5024B1B681B6C019308BD300203000B
:1057FC0008B5024B1B685B6C019308BD30020300BB
:10580C0008B5024B1B681B68019308BD4C020300D2
:10581C0008B5024B1B685B68019308BD4C02030082
:10582C0008B5024B1B681B69019308BD4C020300B1
:10583C0008B5024B1B685B69019308BD4C02030061
:10584C0008B5024B1B689B69019308BD4C02030011
:10585C0008B5024B1B68DB69019308BD4C020300C1
:10586C0008B5024B1B681B6A019308BD4C02030070
:10587C0008B5024B1B685B6B019308BD600203000B
:10588C0008B5024B1B685B68019308BD200203003E
:10589C0008B5024B1B685B69019308BD200203002D
:1058AC0008B5024B1B68DB6A019308BD200203009C
:1058BC0008B5034B1B68D3F88830019308BD000072
:1058CC002002030008B5034B1B68D3F894300193F6
:1058DC0008BD00002002030008B5024B1B685B6882
:1058EC00019308BD4002030008B5024B1B689B687E
:1058FC00019308BD4002030008B5024B1B68DB682E
:10590C00019308BD4002030008B5024B1B681B69DC
:10591C00019308BD4002030008B5024B1B685B698C
:10592C00019308BD4002030008B5024B1B689B693C
:10593C00019308BD4002030008B5024B1B68DB69EC
:10594C00019308BD4002030008B5024B1B681B6A9B
:10595C00019308BD4002030008B5024B1B681B6B8A
:10596C00019308BD4002030008B5024B1B685B6B3A
:10597C00019308BD4002030008B5024B1B681B6C69
:10598C00019308BD4002030008B5024B1B685B6C19
:10599C00019308BD4002030008B5024B1B68DB6B8A
:1059AC00019308BD4402030008B5024B1B681B6839
:1059BC00019308BD1C02030008B5024B1B685B6811
:1059CC00019308BD1C02030008B5024B1B685B6AFF
:1059DC00019308BD1C02030008B5024B1B685B6CED
:1059EC00019308BD1C020300002240681146FFF71A
:1059FC00ABBF002240681146FFF7B6BF40680022DB
:105A0C00FFF7AABF4068002281F00101FFF794BFA5
:105A1C00002340681A461946FFF786BF00234068EA
:105A2C001A461946FFF778BF002240681146FFF767
:105A3C006BBF002240681146FFF756BF406800223A
:105A4C000221FFF759BF002340681A46FFF744BFF5
:105A5C00024B03225A60024A1A60704750E6032038
:105A6C0078720D000021FFF7BBBE0021FFF7C0BE0E
:105A7C0010B5044608462170FFF792FE00236360C0
:105A8C00204610BD10B504460078FFF7EBFF48B96F
:105A9C0020784FF6FF71FFF773FE2078BDE81040B9
:105AAC00FFF7E3BF10BD0078FFF7DFBF400830B54C
:105ABC001860002418688842E5B206D90134082C15
:105ACC0002D040081860F5E70725024B5B5D1370A8
:105ADC0030BD00BFAC720D002DE9F04306468FB00F
:105AEC0000780C46FFF7BEFF00281BDB357814222C
:105AFC00002109A800F0D0FD0B23002209A928469B
:105B0C00ADF82430FFF75CFE9DF82D3013B19DF8F5
:105B1C002C5055B10027B946B846012523795DB103
:105B2C00C3B100200FB0BDE8F083DDF830809DF8E4
:105B3C0034909DF83570F1E7002B35D1A3684345BF
:105B4C0008D18DF820908DF82170BDF82020A38904
:105B5C009A42E6D00023A1688DF80F300A9804AB66
:105B6C000DF10F02FFF7A2FF217985B989B9A3685E
:105B7C0043450ED38DF820908DF82170BDF8202070
:105B8C00A3899A4205D1049B434502D1C9E7002958
:105B9C00F9D100230193637B00939DF80F20237BA5
:105BAC003078FFF715FEBCE7CDE900552B462A46A9
:105BBC000121F5E708B50078FFF7EAFDC0B208BD92
:105BCC0010B5094B094C022200201A60084B2060CA
:105BDC00A080A071A360FFF753FE2046054A06493A
:105BEC00BDE8104000F032BD64E6032058E6032007
:105BFC000000FFFFBCE50320CD400D0010B50446AE
:105C0C00006808B1FFF714FD204610BD10B583687D
:105C1C00044613B1032201469847204610BD0000EC
:105C2C0010B5064C002320462360FFF7F9FC2046F4
:105C3C00034A0449BDE8104000F008BD68E60320A3
:105C4C00BCE50320095C0D00F8B506460D468F181F
:105C5C000024BD420CD0336815F8011B9B683046FC
:105C6C009847031E01DB1C44F3E7002C08BF1C46BD
:105C7C002046F8BD13B50446084659B1019100F011
:105C8C0037FD23680199DB680246204602B0BDE867
:105C9C001040184702B010BD08B5FFF7EBFF08BD68
:105CAC0003689B68184738B50D210546FFF7F8FFC8
:105CBC000A2104462846FFF7F3FF204438BD38B5C7
:105CCC000546FFF7D7FF04462846FFF7ECFF2044B4
:105CDC0038BD30B58BB000238DF82430012A98BF25
:105CEC000A2209AC0D46B1FBF2F101FB125303F091
:105CFC00FF03092B94BF30333733DBB2AA4204F8CD
:105D0C00013DEFD92146FFF7B5FF0BB030BD2DE9B2
:105D1C00F04186B000AF05460E46381D14211446DE
:105D2C003B60FFF751FE13280ED8391D2846FFF7AC
:105D3C00A1FF04461EB12846FFF7B5FF04442046D8
:105D4C001837BD46BDE8F08100F1080323F00703C6
:105D5C00E846ADEB030D2246411C3B686846FFF755
:105D6C0033FE69462846FFF785FF0446C546E1E742
:105D7C00002340681A461946FFF7CEBD014B024A74
:105D8C001A6070476CE60320B4720D00024B1A685F
:105D9C00024B1A60704700BF54E5032070E60320E5
:105DAC000021FFF775BD10B50446FFF72FFF204605
:105DBC0010BD00000348044A04490023836000F02E
:105DCC0045BC00BF74E60320BCE50320B35D0D00A9
:105DDC00014B1860704700BF58E5032008B50B4B0A
:105DEC0043B100F05BF903681B699847002801DD9B
:105DFC00AFF30080064B43B100F0FEF903681B695A
:105E0C009847002801DDAFF3008008BD00000000BA
:105E1C000000000008B5FFF7E1FFFFF7E9FB014BBD
:105E2C00186008BDD4E703200248034A0349121A3C
:105E3C0000F024BC00F4032004F4032010740D00C3
:105E4C0007B5002300931A466FF07701FFF73AFD70
:105E5C0003B05DF804FB000007B543880A2B08D09B
:105E6C00502B0BD1094B1B684BB103B05DF804EB05
:105E7C001847FFF7E5FF03B05DF804FB0023009320
:105E8C001A466FF07701FFF71DFDF4E788E6032053
:105E9C0038B5124C1248134D0021FFF79DFD2368B5
:105EAC00AB42114B0CBF012200221A7002D0FFF73B
:105EBC00BBFF2560FFF78CFB044600F0F5FB0B4B9A
:105ECC0013B12046AFF3008000210848FFF764FDB2
:105EDC00BDE8384006480021FFF7EABC00F4032077
:105EEC00DD5D0D001E1C279A84E6032000000000D7
:105EFC00655E0D00704710B51821044600F0ABFB31
:105F0C00204610BDF0B5037D062B8DB00E4600F17A
:105F1C0004074FF0000412D000F1080515F8011D1C
:105F2C000A223046FFF7D5FEAF42044419D0002CAC
:105F3C00F4D02E213046FFF7B3FE0444EEE72F23B6
:105F4C006A4639460A208DF80040FFF779FB68460F
:105F5C0000F0CEFB33680246DB6869463046984752
:105F6C00044620460DB0F0BD10B5054B0446112279
:105F7C0040F8043B002100F08FFB204610BD00BF11
:105F8C00DC720D000346074A10B543F8042B01F1EF
:105F9C00100251F8044B43F8044B9142F9D10A78A2
:105FAC001A7010BDDC720D0010B59DF8084044EA63
:105FBC00032343EA024242EA016104234160037570
:105FCC0010BD000013B5054B0360CB7800938B78A4
:105FDC004A780978FFF7E8FF02B010BDDC720D00BB
:105FEC0041747047704708B50021007CFFF728FC0E
:105FFC0040EAE07008BD08B50121007CFFF720FCE9
:10600C0040EAE07008BD08B5007CFFF711FC20EAFF
:10601C00E07008BD08B5007CFFF702FC20EAE070D8
:10602C0008BD13B50446007C0191FFF701FC002864
:10603C00019901DC607C20B1207CFFF709FC20EA8F
:10604C00E07002B010BD007CFFF70ABC10B5142143
:10605C00044600F000FB204610BD000010B54FF4C4
:10606C007A73044608460021C4E90113044B2360EB
:10607C000123207463741146FFF7C2FB204610BD48
:10608C00F0720D00007C0022FFF7C2BB10B5142289
:10609C000446002100F000FB204610BD10B5104C4A
:1060AC0088B003A8FFF7F2FF2178BFF35B8F11F0E4
:1060BC00010111D120460191FDF7F4FF019958B16E
:1060CC0003AA0848FFF7CAFF2046FDF7F0FF064A6F
:1060DC000649044800F0BAFA024808B010BD00BFE7
:1060EC008CE6032090E60320BCE50320F15F0D0055
:1060FC00004700002DE9FF4100241D460F46904645
:10610C000646FFF74DFAA5424FF00403ADF80D40DB
:10611C008DF80C308DF80F40A2BF9DF828308DF80B
:10612C000E3003AC0749009443463A463046A8BFAC
:10613C008DF80D50FFF72CFAB0FA80F0400904B03E
:10614C00BDE8F081FD600D00FFF73ABAFFF730BAF9
:10615C0070474174704708B5007CFFF7B1FA20EA2C
:10616C00E07008BD08B5007CFFF782FA20EAE07009
:10617C0008BD08B5007CFFF78BFA40EAE07008BD5B
:10618C0008B5007CFFF77CFA40EAE07008BD007CA3
:10619C00FFF786BA37B5457C04462DB1207C03B099
:1061AC00BDE83040FFF75CBA007C0191FFF788FA3C
:1061BC0000280199F2DC284603B030BD10B514213B
:1061CC00044600F048FA204610BD000010B54FF010
:1061DC00000C0446084611464FF47A72C4E901C219
:1061EC00044A22600122207462741A46FFF730FAC6
:1061FC00204610BD20730D0013B50E4C2178BFF353
:10620C005B8F11F0010112D120460191FDF74AFF7D
:10621C00019960B1084A094B0948FFF7D7FF20469E
:10622C00FDF745FF074A0849054800F00FFA0448F6
:10623C0002B010BDA4E60320A8E603202CE703203F
:10624C00B0E70320BCE503205D610D007047F8B595
:10625C00064615460C468F18BC4206D0336814F817
:10626C00011B9B6830469847F6E72846F8BD007C32
:10627C000022FFF74DBA007C0021FFF751BA007CD9
:10628C000021FFF755BA007C0021FFF759BA007CBA
:10629C000021FFF75DBA10B51421044600F0DBF9BC
:1062AC00204610BD10B54FF47A7304460846002101
:1062BC00C4E90113034B236020741146FFF758FA0D
:1062CC00204610BD50730D00007C0022FFF700BA71
:1062DC000023007C1A461946FFF702BA007C002204
:1062EC00FFF706BAC9B2FFF7F9BF007C0022FFF72F
:1062FC0007BA0121FFF7F9BF002240681146FFF7EA
:10630C0003BB002240681146FFF71EBB0022406809
:10631C001146FFF729BB40680022FFF71DBB406800
:10632C00002281F00101FFF707BB002340681A46E9
:10633C001946FFF7F9BA002240681146FFF7D4BAA4
:10634C00406800220221FFF7D7BA002340681A46A2
:10635C00FFF7C2BA024B04225A60024A1A60704715
:10636C00C4E7032078730D00002340681A46FFF73A
:10637C00B3BA406800220221FFF7BEBA002240687F
:10638C001146FFF7B1BA002240681146FFF7BCBABC
:10639C00002340681A461946FFF7BEBA002340682E
:1063AC001A461946FFF7C0BA40680021FFF7E4BA55
:1063BC0040680021FFF7E8BA4068002281F0010133
:1063CC00FFF7BABA40680022FFF7C6BA002240684D
:1063DC001146FFF7C9BA002240681146FFF7B4BA5C
:1063EC002DE9F043002495B016460D460746FFF7FD
:1063FC00BBFD214618220EA8009400F04DF9402355
:10640C00CDE90C3421466B460CAA3046FFF798F8C0
:10641C00044600284CD1024601216868FFF774FA43
:10642C000221804622466868FFF76EFA009E81467C
:10643C002146002E3CD000293AD17368022B03D0A0
:10644C000A2B11D0F669F4E7B8F1000F0AD0716984
:10645C0006A8043107ADFFF7B5FD0FCD3C1D0FC4E9
:10646C002B6823704146EDE7B9F1000F01D1494685
:10647C00E8E77469102201A800F00EF906238DF8E4
:10648C00143001AD04F108031834186859682A4611
:10649C0003C20833A3421546F7D101A906A807ADDC
:1064AC00FFF770FD0FCD3C1D0FC42B682370DEE78A
:1064BC000098FFF73DF8384615B0BDE8F0830000B2
:1064CC00024B034A1A6000225A607047CCE7032043
:1064DC00B4730D00232813B502D9002002B010BDEF
:1064EC00A0F10B03022B1AD8174C2178BFF35B8F4A
:1064FC0011F001010BD120460191FDF7D3FD01995B
:10650C0028B11248FFF7B4FA2046FDF7D0FD0F4B27
:10651C001878FFF74DF90028DFD10120DEE70128BC
:10652C0009D800F06BF80021007CFFF719F980F016
:10653C000100C0B2D2E709380128EED8FFF75CFEA3
:10654C00007CFFF7B5F8F2E744E6032048E60320A9
:10655C00232838B504460D460AD8FF2908D0FFF782
:10656C00B9FF28B129462046BDE83840FEF7F0BFF8
:10657C0038BD38B504460D46FEF7F2FFFF2810D0A3
:10658C00062804D84D2323FA00F0C30709D420466B
:10659C00FFF7A0FF28B129462046BDE83840FEF79A
:1065AC00E7BF38BD10B50446FEF7DAFF031FDBB2B8
:1065BC00012B08D92046FFF78DFF20B12046BDE8FE
:1065CC001040FEF7DDBF002010BD000038B50023E1
:1065DC002025438014230446038085600561064909
:1065EC00284600F03AF804496060284600F035F877
:1065FC00E060204638BD00BFE8730D0030B50F4D8C
:10660C002978BFF35B8F11F0010487B013D12846B2
:10661C00FDF748FD78B101A8FFF7D8FF01AA214684
:10662C000748FFF73FFE2846FDF741FD054A06499E
:10663C00034800F00BF8024807B030BDD8E7032040
:10664C00DCE70320BCE5032059620D000B46014634
:10665C00184600F005B8FDF718BDFDF714BD000095
:10666C0010B5054C13462CB10A4601460220AFF377
:10667C00008010BD2046FCE7000000000A44914257
:10668C0000F1FF3300D1704710B511F8014B03F83E
:10669C00014F9142F9D110BD02440346934200D1FF
:1066AC00704703F8011BF9E738B50D4B1D68AB6B50
:1066BC0004467BB91820FFF777F90A4A0A4BA863FE
:1066CC00C0E90023094B83600B2383810122002343
:1066DC00C0E90423AB6B00221C615A6138BD00BFBA
:1066EC0058E503200E33CDAB34126DE6ECDE05001D
:1066FC00034613F8012B002AFBD1181A01387047F6
:10670C001D400D0059400D0081400D0085400D00CD
:10671C0000000000696E2074686520747275650055
:10672C00696E207468652066616C736500646566CB
:10673C0061756C7420004D5342004C5342003C5325
:10674C00504953657474696E67732064656661752E
:10675C006C743E003C53504953657474696E677396
:10676C002025732575202573204D4F444525753EF6
:10677C000000000000003E5B4F5B3E3E6B4F6B3EEB
:10678C001C3E7C3E1C183C7E3C181C577D571C1C28
:10679C005E7F5E1C00183C1800FFE7C3E7FF001883
:1067AC00241800FFE7DBE7FF30483A060E2629796C
:1067BC002926407F050507407F05253F5A3CE73CCD
:1067CC005A7F3E1C1C08081C1C3E7F14227F22147E
:1067DC005F5F005F5F06097F017F006689956A60D5
:1067EC006060606094A2FFA29408047E04081020EC
:1067FC007E201008082A1C08081C2A08081E1010E5
:10680C0010100C1E0C1E0C30383E3830060E3E0E8E
:10681C0006000000000000005F00000007000700F9
:10682C00147F147F14242A7F2A12231308646236DF
:10683C00495620500008070300001C22410000416B
:10684C00221C002A1C7F1C2A08083E0808008070A5
:10685C0030000808080808000060600020100804D8
:10686C00023E5149453E00427F400072494949462B
:10687C002141494D331814127F1027454545393CA9
:10688C004A49493141211109073649494936464996
:10689C0049291E00001400000040340000000814B8
:1068AC002241141414141400412214080201590931
:1068BC00063E415D594E7C1211127C7F4949493686
:1068CC003E414141227F4141413E7F494949417FFF
:1068DC00090909013E414151737F0808087F0041B5
:1068EC007F41002040413F017F081422417F4040FE
:1068FC0040407F021C027F7F0408107F3E414141D3
:10690C003E7F090909063E4151215E7F091929463E
:10691C00264949493203017F01033F4040403F1F54
:10692C002040201F3F4038403F6314081463030489
:10693C007804036159494D43007F414141020408E9
:10694C001020004141417F040201020440404040BC
:10695C0040000307080020545478407F28444438F2
:10696C003844444428384444287F3854545418003C
:10697C00087E090218A4A49C787F080404780044BB
:10698C007D40002040403D007F1028440000417FA6
:10699C0040007C047804787C08040478384444442F
:1069AC0038FC1824241818242418FC7C0804040827
:1069BC00485454542404043F44243C4040207C1C40
:1069CC002040201C3C4030403C44281028444C9033
:1069DC0090907C4464544C4400083641000000778D
:1069EC000000004136080002010204023C26232666
:1069FC003C1EA1A161123A4040207A38545455599A
:106A0C0021555579412254547842215554784020CF
:106A1C00545579400C1E52721239555555593954EA
:106A2C0054545939555454580000457C4100024582
:106A3C007D420001457C407D1211127DF0282528F5
:106A4C00F07C545545002054547C547C0A097F49F1
:106A5C0032494949323A4444443A324A4848303A35
:106A6C004141217A3A42402078009DA0A07D3D42D0
:106A7C0042423D3D4040403D3C24FF2424487E4959
:106A8C0043662B2FFC2F2BFF0929F620C0887E098B
:106A9C000320545479410000447D413048484A3227
:106AAC00384040227A007A0A0A727D0D19317D260F
:106ABC0029292F28262929292630484D40203808F5
:106ACC0008080808080808382F10C8ACBA2F102876
:106ADC0034FA00007B000008142A142222142A1411
:106AEC00085500550055AA55AA55AAFF55FF55FF44
:106AFC00000000FF00101010FF00141414FF001011
:106B0C0010FF00FF1010F010F0141414FC001414FB
:106B1C00F700FF0000FF00FF1414F404FC1414171A
:106B2C00101F10101F101F1414141F00101010F041
:106B3C00000000001F101010101F10101010F0108B
:106B4C00000000FF101010101010101010FF10009B
:106B5C000000FF140000FF00FF00001F10170000D2
:106B6C00FC04F414141710171414F404F40000FFAC
:106B7C0000F714141414141414F700F71414141745
:106B8C001410101F101F141414F4141010F010F023
:106B9C0000001F101F0000001F14000000FC140058
:106BAC0000F010F01010FF10FF141414FF1410104C
:106BBC00101F00000000F010FFFFFFFFFFF0F0F0CF
:106BCC00F0F0FFFFFF0000000000FFFF0F0F0F0FA2
:106BDC000F3844443844FC4A4A4A347E02020606C2
:106BEC00027E027E0263554941633844443C0440B2
:106BFC007E201E2006027E020299A5E7A5991C2A7A
:106C0C00492A1C4C7201724C304A4D4D3030487838
:106C1C004830BC625A463D3E494949007E0101015B
:106C2C007E2A2A2A2A2A44445F444440514A44403A
:106C3C0040444A51400000FF0103E080FF0000087F
:106C4C00086B6B083612362436060F090F06000047
:106C5C0018180000001010003040FF0101001F0147
:106C6C00011E00191D1712003C3C3C3C00000000AA
:106C7C000000000000000000000000000000000008
:106C8C000000000079490D00555C0D009D400D0081
:106C9C0081430D0083430D00B5430D0091430D005E
:106CAC00A3430D00C5420D0081430D00AD450D0001
:106CBC0027450D00CD430D000B440D0045440D0040
:106CCC008B440D0029450D00A7440D000000000069
:106CDC0000000000894A0D00A94A0D0079490D00F9
:106CEC00555C0D006D4C0D0081430D0083430D0070
:106CFC00B5430D0091430D00A3430D00C5420D009B
:106D0C0081430D00AD450D00274E0D00BB530D000A
:106D1C006D530D0045440D008B440D0029450D00AD
:106D2C00A7440D00000000000000000071420D009F
:106D3C0045420D0047420D0000000000000180009C
:106D4C0000000000000000000380000000000000B4
:106D5C0000000007C000000000000000000007C099
:106D6C000000000000000000000FC0000000000048
:106D7C00000000001FE00000000000000000001FE9
:106D8C00E00000000000000000003FE000000000F8
:106D9C0000000000003FF0000000000000000000B8
:106DAC007FF0000000000000001FF87FF0000000E2
:106DBC00000000003FFE7FF0000000000000003FDC
:106DCC00FF7FF0000000000000001FFFFBE0000050
:106DDC0000000000000FFFF9FFC0000000000000E1
:106DEC000FFFF9FFF800000000000007FFF1FFFFA4
:106DFC0000000000000003FC73FFFF800000000097
:106E0C000001FE3FFFFF80000000000000FF1E0F8E
:106E1C00FF000000000000007FFE1FFC00000000CF
:106E2C000000003FFFFFF8000000000000000FDF33
:106E3C00FFE0000000000000001F19FFC000000070
:106E4C00000000003F3CFF00000000000000007E3E
:106E5C007CF800000000000000007FFE7C000000B9
:106E6C000000000000FFFFFC00000000000000001C
:106E7C00FFFFFE0000000000000000FFFFFE00000E
:106E8C00000000000001FFEFFE0000000000000009
:106E9C0001FFCFFE0000000000000003FF07FE0012
:106EAC0000000000000003FC07FE000000000000D2
:106EBC000003F003FE00000000000000018000FE53
:106ECC00000000000000000000007E000000000038
:106EDC0000000000003E0000000000000000000068
:106EEC000C000000000000078000FC000003C00044
:106EFC000000078001FC000003C0000000078001B7
:106F0C00FC000003C0000000078001E00000001E30
:106F1C00000000078001E00000001E007FE3F79FE7
:106F2C00F9FDE7787BDFC0FFF7FFBFFDFDFF787B46
:106F3C00DFC0FFF7FFBFFDFDFF787BDFC0F0F787F9
:106F4C00BC3DE1FF787BDE00F0F787BC3DE1F078DB
:106F5C007BDE0000F787803DE1E0787BDE007FF789
:106F6C00879FFDE1E0787BDE00FFF787BFFDE1E066
:106F7C00787BDE00F0F787BC3DE1E0787BDE00F04B
:106F8C00F787BC3DE1E0787BDE00F0F787BC3DE1A4
:106F9C00E0787BDE00FFF7FFBFFDE1E07FFBDFC0A9
:106FAC00FFF7FFBFFDE1E07FFBDFC07CF3F39F3D0C
:106FBC00E1E03E7BCFC000000000000000000000BC
:106FCC0000FFFFFFFFFFFFFFFFFFFFC0FFFFFFFF03
:106FDC00FD68DB111A31C0FFFFFFFFFD2B5AFB6A66
:106FEC00EFC0FFFFFFFFFD4B5B3B1A33C0FFFFFF02
:106FFC00FFFD6B5BDB6AFDC0000060000000000061
:10700C00000000000000000000E000000000000094
:10701C000000000000000001E00000000000000083
:10702C0000000000000001F0000000000000000063
:10703C00000000000003F000000000000000000051
:10704C000000000007F0000000000000000000003D
:10705C0000000007F8000000000000000000000025
:10706C0000000FF800000003C0007E000001E000EB
:10707C007F0FF800000003C000FE000001E000FFDD
:10708C00EFF800000003C000FE000001E000FFFF6D
:10709C00F800000003C000F00000000F007FFE7F2E
:1070AC00C0000003C000F00000000F003FFE7FF89E
:1070BC003FF1FBCFFCFEF3BC3DEFE01FFE7FFF7FFB
:1070CC00FBFFDFFEFEFFBC3DEFE01FC6FFFF7FFBBB
:1070DC00FFDFFEFEFFBC3DEFE00FE3C7FE787BC396
:1070EC00DE1EF0FFBC3DEF0007FF87FC787BC3DEA4
:1070FC001EF0F83C3DEF0001FFFFF0007BC3C01E0B
:10710C00F0F03C3DEF0001F37FE03FFBC3CFFEF01E
:10711C00F03C3DEF0003E33F807FFBC3DFFEF0F06C
:10712C003C3DEF0007E73C00787BC3DE1EF0F03CF3
:10713C003DEF0007FFBE00787BC3DE1EF0F03C3D48
:10714C00EF0007FFFE00787BC3DE1EF0F03C3DEF46
:10715C00000FFFFE007FFBFFDFFEF0F03FFDEFE0D6
:10716C000FFFFF007FFBFFDFFEF0F03FFDEFE00FB6
:10717C00F9FF003E79F9CF9EF0F01F3DE7E01FF1DB
:10718C00FF0000000000000000000000001F80FF56
:10719C00007FFFFFFFFFFFFFFFFFFFE01C007F00F2
:1071AC007FFFFFFFFEB46D888D18E000001F007F8D
:1071BC00FFFFFFFE95AD7DB577E000000F007FFF70
:1071CC00FFFFFEA5AD9D8D19E0000006007FFFFFBF
:1071DC00FFFEB5ADEDB57EE0000000000000000044
:1071EC00414C0D00594C0D0079490D00555C0D00BA
:1071FC006D4C0D0081430D0083430D00B5430D0014
:10720C0091430D00A3430D00C5420D0081430D00B9
:10721C00AD450D00274E0D00BB530D006D530D00F9
:10722C0045440D008B440D0029450D00A7440D006D
:10723C000080C0E0F0F8FCFE000103070F1F3F7F49
:10724C00AED580A8D300408D2000A1C8DB40A4A6F9
:10725C002EAFDA02818FDA1281DA02812200FF214D
:10726C00000000000000000000000000535A0D0058
:10727C00495A0D003F5A0D00355A0D00295A0D0080
:10728C001D5A0D00B5630D00BD630D00115A0D00A4
:10729C00095A0D00FF590D00F5590D00ED630D0055
:1072AC0000081018202830386170700025592D25E1
:1072BC006D2D25645425483A254D3A2553257A00E1
:1072CC0061736374696D65000000000000000000CC
:1072DC00115F0D00015F0D00035F0D000000000049
:1072EC0000000000F15F0D0059600D002F600D00D3
:1072FC00555C0D0021600D00F35F0D0003600D0067
:10730C0053600D0013600D00ED5F0D0000000000D8
:10731C00000000005D610D00C9610D00A1610D0050
:10732C00555C0D0071610D008D610D007F610D00CC
:10733C009B610D005F610D0063610D00000000009A
:10734C000000000059620D00A3620D007B620D006D
:10735C005B620D0083620D008B620D0093620D0069
:10736C009B620D00000000000000000057630D0040
:10737C004D630D0043630D0005630D007D5D0D0035
:10738C0037630D00B5630D00BD630D002B630D005D
:10739C0023630D0019630D000F630D00ED630D00E9
:1073AC00000000000000000075630D007F630D00FD
:1073BC0089630D0093630D009D630D00A9630D009F
:1073CC00B5630D00BD630D00C5630D00D1630D00E9
:1073DC00D9630D00E3630D00ED630D0000000000A8
:1073EC00ED410D005D5A0D00CD5B0D002D5C0D00C7
:1073FC00895D0D00995D0D00C15D0D0061630D008F
:04740C00CD640D003E
:047410000000000078
:10741400CC720D005CE503200000000000000000B9
:107424000000000000000000000000000000000058
:107434000000000000000000000000000000000048
:107444000000000000000000000000000000000038
:107454000000000000000000000000000000000028
:107464000000000000000000000000000000000018
:08747400000000000000000010
:10747C00FFFFFFFF00000102030405060708090ACD
:10748C000B0C0D0E0F101112131415161718191AC8
:08749C001B1C1D1E1F2028000F
:0474A40078563412D0
:04000003D000401CCD
:00000001FF
